:100000000C9434000C9451000C9451000C94510049
:100010000C9451000C9451000C9451000C9451001C
:100020000C9451000C9451000C9451000C9451000C
:100030000C9451000C9451000C9451000C945100FC
:100040000C9451000C9451000C9451000C945100EC
:100050000C9451000C9451000C9451000C945100DC
:100060000C9451000C94510011241FBECFEFD8E026
:10007000DEBFCDBF11E0A0E0B1E0E0E3FBE002C0F5
:1000800005900D92AE31B107D9F711E0AEE1B1E0C4
:1000900001C01D92AF31B107E1F70E9453000C94EB
:1000A00096050C940000CFEFC8B960E875E280E0D7
:1000B00090E00E94FB0080E091E00E941601C7B929
:1000C000C8B98FEF91EEA4E081509040A040E1F7D5
:1000D00000C0000009E016E0DAE0C5E00E94060179
:1000E00080931E010E940E0180911E018436A9F1A9
:1000F000853618F48136E9F520C0833791F08737CB
:10010000C1F518B988B1805D0E940E018FEF91EEA4
:10011000A4E081509040A040E1F700C0000018B872
:10012000DDCF08B98FEF91EEA4E081509040A04060
:10013000E1F700C0000018B8D1CFD8B98FEF91EE29
:10014000A4E081509040A040E1F700C0000088B1D9
:10015000805D0E940E0118B8C1CFC8B98FEF91EE33
:10016000A4E081509040A040E1F700C0000018B822
:10017000B5CF18B8B3CFCF92DF92EF92FF926B0159
:100180007C01DC01CB0180569940A040B040813A0F
:1001900028EB920721E0A20720E0B20708F5C7018B
:1001A000B60128EF3FEF4FEF5FEF0E94550560501B
:1001B0007C4D8B409F4FCC0CDD1CEE1CFF1CCC0CEF
:1001C000DD1CEE1CFF1CA7019601220F331F441FEC
:1001D000551F220F331F441F551F0E94740502C074
:1001E00027E630E02093C4003093C500FF90EF90E5
:1001F000DF90CF90089528E12093C10026E020935E
:10020000C2001092C0000E94BB000895E0ECF0E034
:1002100080818823ECF78091C6000895E0ECF0E03F
:10022000908195FFFDCF8093C6000895CF93DF9313
:10023000EC018881882331F021960E940E0189917A
:100240008823D9F7DF91CF9108951F93CF93DF9340
:10025000EC010E940601182F0E940E011D3011F0C2
:100260001A3029F41882DF91CF911F9108951993C4
:10027000F0CF8F929F92AF92BF92EF92FF920F9327
:100280001F93CF93DF93CDB7DEB72A970FB6F894BD
:10029000DEBF0FBECDBFDC01CB01042F0097A1054F
:1002A000B10519F0442371F443C0442309F440C05C
:1002B000FE01319610E011921F5F101781F11A3084
:1002C000D1F72DC07E010894E11CF11C10E00F2E27
:1002D000FAE08F2EF0E09F2EF0E0AF2EF0E0BF2E80
:1002E000F02D0097A105B10569F0BC01CD01A50174
:1002F00094010E947405F7016083822F932FA42F2D
:10030000B52F04C00B3048F4F70110821F5F08942A
:10031000E11CF11C101729F702C0112349F0FE015E
:10032000E10FF11D8081805D0E940E011150B9F72F
:100330002A960FB6F894DEBF0FBECDBFDF91CF91E6
:100340001F910F91FF90EF90BF90AF909F908F9073
:1003500008951F93CF93DF93CDB7DEB72A970FB6DB
:10036000F894DEBF0FBECDBFDC01CB010097A10525
:10037000B10519F0442369F436C04423A1F1FE010C
:10038000319610E011921F5F141701F11A30D1F766
:100390001DC0FE01319610E00097A105B10561F086
:1003A000282F2F702083689413F8B695A7959795FA
:1003B00087951694D1F703C04B3030F410821F5F3D
:1003C0003196141749F702C0112369F0FE01E10FBD
:1003D000F11D80818A3010F0895C01C0805D0E942F
:1003E0000E01115099F72A960FB6F894DEBF0FBE92
:1003F000CDBFDF91CF911F910895BF92CF92DF9231
:10040000EF92FF920F931F93CF93DF936B017C01C9
:10041000C42F442319F101E010E0D1E0BB244C2F9C
:1004200050E041505040C80102C0880F991F4A95C2
:10043000E2F7AC01662757FD6095762F4C215D21D0
:100440006E217F218D2F411551056105710509F43C
:100450008B2D805D0E940E01C15009F7DF91CF9175
:100460001F910F91FF90EF90DF90CF90BF90089574
:10047000CF92DF92EF92FF920F931F93CF93DF9370
:100480006B017C010E943804062F172FD82FC92F2B
:100490004FEF0E9439018EE20E940E01602F712FF2
:1004A0008D2F9C2F0E9464049B01AC01C701B601F3
:1004B0000E94D30320E034E244E759E40E94F204AE
:1004C000462F572F682F792FCB01BA010E9438048D
:1004D0004FEF0E943901DF91CF911F910F91FF9053
:1004E000EF90DF90CF9008955F926F927F928F92FE
:1004F0009F92AF92BF92CF92DF92EF92FF920F93B3
:100500001F93CF93DF93CDB7DEB70F2EF2E1CF2E3F
:10051000DD24F02DCC0EDD1ED601ED91FD916D0197
:100520008081882309F42FC18F015524689454F8E1
:1005300099249A948824853209F018C158010894A6
:10054000A11CB11CF8018181982F90539A3080F43E
:100550003296182D110F912F990F990F190F805363
:10056000180F5F018191982F90539A3098F301C032
:10057000192D883509F4A8C08935C0F4843409F4EC
:1005800051C0853448F4823409F4C2C0833428F55C
:10059000853209F0EEC0E6C0833509F4D9C085354F
:1005A00009F471C0863409F0E4C0C6C0863609F487
:1005B000C3C0873640F4833681F08436B9F0823682
:1005C00009F0D7C091C0853709F44CC0883709F4C9
:1005D0006AC0833709F0CDC0BBC086010E5F1F4FD4
:1005E000D6018C910E940E016801C3C0EE24FF2445
:1005F0006894E1F8EC0CFD1CF601C080D180DD2090
:100600003CF4D094C194D108D3948DE20E940E01A1
:10061000B601882777FD8095982F412F0E943901D8
:100620006701A7C066247724689462F86C0C7D1C6F
:10063000D601CD90DD90ED90FC901397FF205CF4F7
:10064000F094E094D094C094C11CD11CE11CF11C26
:100650008DE20E940E01C701B601412F0E943901AF
:10066000630187C0EE24FF246894E1F8EC0CFD1CC4
:10067000F60180819181BC0180E090E0412F0E94D1
:100680003901670176C0EE24FF246894E2F8EC0C8F
:10069000FD1CD6016D917D918D919C91412F0E9401
:1006A0003901670166C0EE24FF246894E1F8EC0C80
:1006B000FD1CF60180819181BC0180E090E0412F1A
:1006C0000E94A901670155C0EE24FF246894E2F856
:1006D000EC0CFD1CD6016D917D918D919C91412F6B
:1006E0000E94A901670145C0EE24FF246894E1F847
:1006F000EC0CFD1CF601808191811F3F09F4152D42
:10070000BC0180E090E0412F0E94FD01670131C0F3
:10071000EE24FF246894E2F8EC0CFD1CD6016D91E8
:100720007D918D919C9113971F3F09F4152D412FB9
:100730000E94FD0167011DC086010C5F1F4FF6017D
:1007400060817181828193810E943802680111C0A9
:10075000F60182E090E0C80ED91E808191810E944E
:10076000160107C085E20E940E0103C00E940E011F
:10077000580185010F5F1F4FD50111968C9111977C
:10078000882309F0D8CEDF91CF911F910F91FF9070
:10079000EF90DF90CF90BF90AF909F908F907F9021
:1007A0006F905F9008955058BB27AA270ED0E0C0E5
:1007B000D1D030F0D6D020F031F49F3F11F41EF4A8
:1007C000C6C00EF4E095E7FBBCC0E92FE2D080F391
:1007D000BA17620773078407950718F071F49EF53E
:1007E000FAC00EF4E0950B2EBA2FA02D0B01B90123
:1007F00090010C01CA01A0011124FF27591B99F097
:10080000593F50F4503E68F11A16F040A22F232FA2
:10081000342F4427585FF3CF469537952795A795F2
:10082000F0405395C9F77EF41F16BA0B620B730B99
:10083000840BBAF09150A1F0FF0FBB1F661F771F0A
:10084000881FC2F70EC0BA0F621F731F841F48F4BF
:10085000879577956795B795F7959E3F08F0B3CF45
:100860009395880F08F09927EE0F9795879508952F
:1008700098D088F09F5790F0B92F9927B751A0F0E2
:10088000D1F0660F771F881F991F1AF0BA95C9F724
:1008900012C0B13081F09FD0B1E008959CC0672FA5
:1008A000782F8827B85F39F0B93FCCF386957795D4
:1008B0006795B395D9F73EF49095809570956195BD
:1008C0007F4F8F4F9F4F0895E89409C097FB3EF4E8
:1008D00090958095709561957F4F8F4F9F4F99238D
:1008E000A9F0F92F96E9BB279395F695879577950B
:1008F0006795B795F111F8CFFAF4BB0F11F460FFCB
:100900001BC06F5F7F4F8F4F9F4F16C0882311F022
:1009100096E911C0772321F09EE8872F762F05C036
:10092000662371F096E8862F70E060E02AF09A95D1
:10093000660F771F881FDAF7880F9695879597F9C6
:10094000089597F99F6780E870E060E008959FEF51
:1009500080EC089500240A94161617061806090656
:10096000089500240A941216130614060506089525
:10097000092E0394000C11F4882352F0BB0F40F4AD
:10098000BF2B11F460FF04C06F5F7F4F8F4F9F4FED
:10099000089557FD9058440F551F59F05F3F71F06F
:1009A0004795880F97FB991F61F09F3F79F08795D6
:1009B0000895121613061406551FF2CF4695F1DF5F
:1009C00008C0161617061806991FF1CF86957105EF
:1009D000610508940895E894BB2766277727CB0123
:1009E00097F908950BD0C4CFB5DF28F0BADF18F01F
:1009F000952309F0A6CFABCF1124EECFCADFA0F329
:100A0000959FD1F3950F50E0551F629FF001729FA3
:100A1000BB27F00DB11D639FAA27F00DB11DAA1FC2
:100A2000649F6627B00DA11D661F829F2227B00D0F
:100A3000A11D621F739FB00DA11D621F839FA00D9A
:100A4000611D221F749F3327A00D611D231F849FEA
:100A5000600D211D822F762F6A2F11249F57504041
:100A60008AF0E1F088234AF0EE0FFF1FBB1F661FDC
:100A7000771F881F91505040A9F79E3F510570F095
:100A800060CFAACF5F3FECF3983EDCF38695779575
:100A90006795B795F795E7959F5FC1F7FE2B880F90
:100AA000911D9695879597F90895629FD001739F40
:100AB000F001829FE00DF11D649FE00DF11D929FFA
:100AC000F00D839FF00D749FF00D659FF00D992739
:100AD000729FB00DE11DF91F639FB00DE11DF91F5D
:100AE000BD01CF0111240895A1E21A2EAA1BBB1B40
:100AF000FD010DC0AA1FBB1FEE1FFF1FA217B307EA
:100B0000E407F50720F0A21BB30BE40BF50B661FFF
:100B1000771F881F991F1A9469F7609570958095C3
:100B200090959B01AC01BD01CF010895F894FFCFD2
:100B3000436F6D707574657220636F6E74726F6C45
:0E0B40006C656420526F626F74210A0D000014
:00000001FF
